:1000000037A1008013010100EF0080006FF05FFF57
:10001000130101FE232E1100232C81001304010281
:10002000EF004003B7170030938747002326F4FE04
:100030008327C4FE1307100023A0E70093070000E6
:10004000138507008320C1010324810113010102EC
:1000500067800000130101FE232E810013040102BA
:10006000B71700302326F4FE8327C4FE1307F00CD5
:1000700023A0E700130000000324C10113010102C3
:040080006780000095
:00000001FF
