:1000000033000000B300000033010000B301000022
:1000100033020000B302000033030000B30300000A
:1000200033040000B304000033050000B3050000F2
:1000300033060000B306000033070000B3070000DA
:1000400033080000B308000033090000B3090000C2
:10005000330A0000B30A0000330B0000B30B0000AA
:10006000330C0000B30C0000330D0000B30D000092
:10007000330E0000B30E0000330F0000B30F00007A
:100080003701018013010100EF00C00F6F00400035
:100090006F000000B717003023A0A70067800000A2
:1000A000B717003003A5070067800000B7170030BE
:1000B00023A2A70067800000B717003003A5470000
:1000C00067800000B737003023A0A70067800000DA
:1000D000B717003003A70700930710003395A70058
:1000E000638A05003365E500B717003023A0A70039
:1000F000678000001345F5FF3375E5006FF0DFFE04
:10010000B717003003A74700930710003395A700E7
:100110003375E5003335A00067800000B717003065
:1001200003A74700930710003395A700638A0500D3
:100130003365E500B717003023A2A70067800000F1
:100140001345F5FF3375E5006FF0DFFEB73700307C
:1001500003A5070067800000B737003023A0070021
:1001600067800000B737003023A0070003A707000F
:100170003305E50003A70700E37EE5FE23A00700A3
:040180006780000094
:10018400130101FF23248100371400308327040066
:10019400232611002322910093E717002320F40063
:1001A400832704001305401F93E727002320F4004E
:1001B4008327040093E747002320F40083270400E7
:1001C40093E787002320F4008327040093E70701C3
:1001D4002320F4008327040093E707022320F4007C
:1001E4008327040093E707042320F40083270400F3
:1001F40093F7F7F72320F4008327440093E71700CD
:100204002322F4008327440093E727002322F400E9
:10021400EFF01FF5832744001305401F93F7D7FF22
:100224002322F400EFF0DFF313057000EFF01FED6D
:100234009375F50F13053000EFF01FEE9304A00043
:10024400832744001305800C9384F4FF93E747004D
:100254002322F400EFF0DFF0832744001305800C21
:1002640093F7B7FF2322F400EFF09FEFE39A04FC27
:080274001305803E6FF01FFB33
:00000001FF
