:1000000033000000B300000033010000B301000022
:1000100033020000B302000033030000B30300000A
:1000200033040000B304000033050000B3050000F2
:1000300033060000B306000033070000B3070000DA
:1000400033080000B308000033090000B3090000C2
:10005000330A0000B30A0000330B0000B30B0000AA
:10006000330C0000B30C0000330D0000B30D000092
:10007000330E0000B30E0000330F0000B30F00007A
:100080003701018013010100EF00D0096F0040002B
:100090006F000000B717003003A707009307100098
:1000A0003395A700638A05003365E500B717003074
:1000B00023A0A700678000001345F5FF3375E50016
:1000C0006FF0DFFEB717003003A74700930710005B
:1000D0003395A7003375E5003335A0006780000035
:1000E000B717003003A74700930710003395A70008
:1000F000638A05003365E500B717003023A2A70027
:10010000678000001345F5FF3375E5006FF0DFFEF3
:10011000B737003003A5070067800000B73700300D
:1001200023A0070067800000B737003023A0070036
:1001300003A707003305E50003A70700E37EE5FEFC
:1001400023A0070067800000B717003023A0A70096
:1001500067800000B717003003A507006780000024
:10016000B717003023A2A70067800000B717003040
:1001700003A5470067800000B737003023A0A70021
:1001800067800000130101FD2324810223229102D4
:10019000232E3101232861012326710123248101AB
:1001A0002326110223202103232C4101232A51015C
:1001B000930405009389050013040500130BA000A8
:1001C000930BD000130C8000138AF9FF63080A0018
:1001D000EF00C06E13090500631665051305A00046
:1001E000EF00806F23000400631494009304000068
:1001F0008320C10203248102032901028329C10152
:10020000032A8101832A4101032B0101832BC100B1
:10021000032C810013850400832441021301010390
:1002200067800000E30C75FB937AF50F13850A00D5
:10023000EF00806A631E890163089400A30F04FE27
:10024000138A09001304F4FF93090A006FF0DFF723
:1002500023005401130414006FF01FFF130101FF6A
:1002600023248100232611001304050063160500D2
:10027000370400801304040003450400631A0500DA
:100280008320C10003248100130101016780000065
:1002900013041400EF0040646FF01FFE130101FF10
:1002A00023261100EFF09FFB8320C1001305A0005F
:1002B000130101016F004062130101FA232441057B
:1002C000138A0500B7050080232C8104232A91049A
:1002D0001384C5011306C0029385C501930405006C
:1002E00013054101232E110423282105232631055E
:1002F00023225105EF0040229305C402130640015A
:1003000013050100EF0040211304010063040A00FB
:10031000130441013709008093098001930A1000FA
:100320001309890083250400639405028320C10515
:100330000324810583244105032901058329C10480
:10034000032A8104832A4104130101066780000007
:100350006384550163E2B40263060A021385040054
:10036000EF0080409305A000EF0080403305A90016
:1003700003450500EF004056938989FF13044400AC
:100380006FF05FFA93874900B3D7F40093F7F70053
:10039000B307F90003C50700EF000054B3D73401D9
:1003A00093F7F700B307F90003C507006FF09FFC50
:1003B000930500006FF05FF0930510006FF0DFEF22
:1003C000130101FB2322F10493074103232481023B
:1003D00023202103232E3101232C4101232A510103
:1003E000232611022322910213040500232AB102BD
:1003F000232CC102232ED1022320E1042324010552
:10040000232611052326F100130950029309300712
:10041000130A8007930A400603450400631405028B
:100420008320C102032481028324410203290102A3
:100430008329C101032A8101832A41011301010596
:10044000678000009304140063142507034514001B
:10045000631035038327C10003A5070013874700F6
:100460002326E100EFF09FDF138414006FF0DFFA22
:10047000631E45018327C10003A5070013874700BA
:100480002326E100EFF0DFF26FF01FFE631E55013F
:100490008327C10003A50700138747002326E10037
:1004A000EFF09FF16FF05FFCEF0000436FF0DFFBB8
:1004B000EF008042930404006FF01FFB1306F6FF69
:1004C000930700003307F500834607003387F500E4
:1004D00003470700638AC7006388060063060700B6
:1004E00093871700E380E6FE3385E64067800000CF
:1004F0001306F0FF6FF09FFC13070500930705003C
:100500003385E7406388070083C607009387170099
:10051000E39806FE67800000930700006394C7001D
:10052000678000003387F500834607003307F50036
:10053000938717002300D7006FF05FFE3306C500D6
:10054000930705006394C700678000009387170036
:10055000A38FB7FE6FF01FFF130101FE232C810054
:1005600013040500138505002328210123263101EA
:10057000232E1100232A910013890500EFF0DFF7E5
:100580009309050063180400B717008003A407C788
:10059000630004049304040083C704006398070005
:1005A000B717008023A807C66F00800213860900D2
:1005B0009305090013850400EFF05FF093871400A2
:1005C0006318050237170080238004002328F7C62C
:1005D0008320C10113050400032481018324410108
:1005E000032901018329C100130101026780000072
:1005F000938407006FF05FFA13070500930600006D
:10060000130500001306D002631A0700639C06025C
:1006100067800000930610006F00400283470700C8
:10062000E38607FEE388C7FE93153500938707FD31
:10063000B387B700131515003385A70013071700FC
:100640006FF09FFC3305A040678000001307050092
:100650009306900313050000630607008347070015
:1006600063940700678000001315450063EAF600F5
:10067000938707FD3385A700130717006FF0DFFD91
:1006800093F7F705938797FC6FF0DFFE930705005C
:100690006376B500938705009305050013050000F8
:1006A000639405006780000013F7150063040700DA
:1006B0003305F5009397170093D515006FF05FFE93
:1006C000130101FF2322910023261100232481001E
:1006D00093040000635605003305A0409304100006
:1006E0001304000063D60500B305B04013041000E6
:1006F000EFF0DFF9638484003305A0408320C1005C
:10070000032481008324410013010101678000005C
:100710009307050013071000138505006398050073
:100720006780000013171700131515006374F50098
:10073000E35A05FE930600006F00800163E6A70000
:10074000B387A740B386E60013571700135515006B
:1007500063840700E31407FE13850600E31206FC1A
:10076000138507006FF0DFFB130610006FF05FFAD0
:10077000130600006FF0DFF9638E0506130101FF19
:10078000232481002322910023261100232021010C
:100790001304060093040000635605003305A040CF
:1007A000930410001309000063D60500B305B040A0
:1007B0001309100013060400EFF09FF593050500E0
:1007C0006304040263842401B305A0408320C100B4
:1007D00003248100832441000329010013850500BF
:1007E0001301010167800000E38204FEB305A0400D
:1007F0006FF0DFFD13850500678000001306100011
:100800006FF09FF7130600006FF01FF7B707003077
:100810003305F5000325050067800000B7070030A9
:100820003305F5002320B50067800000B7070030CE
:1008300003A5C7001375150067800000B7070030D7
:1008400003A5C70013553500137515006780000018
:10085000B707003003A547001375F50F6780000048
:10086000B707003023A0A70067800000130101FF35
:100870009395450023261100EFF01FEF8320C10060
:100880001305F5FF1301010167800000B717000091
:1008900003A58700130101FFB7251C0023261100C3
:1008A000EFF09FEC8320C1001305F5FFB707003080
:1008B00023A8A7001301010167800000370700305B
:1008C0008327C70093F71700E39C07FE0325470023
:1008D0001375F50F67800000130101FF23248100C9
:1008E000232611009307A00013040500631CF500E4
:1008F000EFF0DFF4E31E05FEB70700301307D0006A
:1009000023A0E700EFF09FF3E31E05FEB7070030DA
:100910008320C10023A0870003248100130101016B
:0409200067800000EC
:10092400130101FE232E1100232C8100232A9100A0
:10093400232821012326310123244101EFF0DFF490
:100944009305100013050000EFF08FF493051000D9
:1009540013050000EFF08FF8B717008003A587C6D2
:1009640037C4ADDE1309D000EFF05FA53705008072
:100974001305C505EFF09FA4370A0080B71900805E
:100984001304F4EEB7040080EFF01FF31375F50FB2
:100994006310250313050A06EFF05FA283A749C677
:1009A400E38487FE13858406EFF05FA16FF0DFFD1B
:0809B400EFF05FF26FF09FFE0F
:00000001FF
