:1000000033000000B300000033010000B301000022
:1000100033020000B302000033030000B30300000A
:1000200033040000B304000033050000B3050000F2
:1000300033060000B306000033070000B3070000DA
:1000400033080000B308000033090000B3090000C2
:10005000330A0000B30A0000330B0000B30B0000AA
:10006000330C0000B30C0000330D0000B30D000092
:10007000330E0000B30E0000330F0000B30F00007A
:100080003701018013010100EF0010186F004000DC
:100090006F000000B717003023A0A70067800000A2
:1000A000B717003003A5070067800000B7170030BE
:1000B00023A2A70067800000B717003003A5470000
:1000C00067800000B737003023A0A70067800000DA
:1000D000B717003003A70700930710003395A70058
:1000E000638A05003367E500B717003023A0E700F7
:1000F000678000001345F5FF3377E5006FF0DFFE02
:10010000B717003003A74700930710003395A700E7
:100110003375E5003335A00067800000B716003066
:1001200003A7460093071000938646003395A70067
:10013000638805003367E50023A0E60067800000C0
:100140001345F5FF3377E5006FF01FFFB737003039
:1001500003A5070067800000B737003023A0070021
:1001600067800000B737003023A0070003A707000F
:100170003305E50003A70700E37EE5FE23A00700A3
:1001800067800000B70700303305F5000325050040
:1001900067800000B70700303305F5002320B50065
:1001A00067800000B707003003A5C700137515006E
:1001B00067800000B707003003A5C700135535005E
:1001C0001375150067800000B707003003A54700CE
:1001D0001375F50F67800000B707003023A0A70054
:1001E00067800000130101FF93954500232611004D
:1001F000EF0040698320C1001305F5FF13010101E1
:1002000067800000B717000003A58700130101FFF6
:10021000B7251C0023261100EF00C0668320C10013
:100220001305F5FFB707003023A8A700130101014C
:1002300067800000130101FF23261100EFF09FF6F5
:10024000E31E05FEB707003003A547008320C10069
:100250001375F50F1301010167800000130101FF01
:1002600023248100232611009307A0001304050016
:10027000631CF500EFF01FF4E31E05FEB707003026
:100280001307D00023A0E700EFF0DFF2E31E05FE26
:10029000B70700308320C10023A08700032481001A
:1002A0001301010167800000130101FD2324810275
:1002B00023229102232E310123286101232671017B
:1002C000232481012326110223202103232C410111
:1002D000232A5101130405009389050093040500A6
:1002E000130BA000930BD000130C8000138AF9FFAE
:1002F00063080A00EFF01FF4130905006316650593
:100300001305A000EFF09FF52380040013050400FF
:1003100063948400130500008320C102032481023A
:1003200083244102032901028329C101032A810197
:10033000832A4101032B0101832BC100032C81007F
:100340001301010367800000E30C75FB937AF50F3E
:1003500013850A00EFF09FF0631E89016388840013
:10036000A38F04FE138A09009384F4FF93090A0003
:100370006FF0DFF723805401938414006FF01FFFA8
:10038000130101FF2324810023261100130405001B
:1003900063160500170400801304C4C60345040057
:1003A000631A05008320C1000324810013010101A9
:1003B0006780000013041400EFF05FEA6FF01FFE87
:1003C000130101FF23261100EFF09FFB8320C100E2
:1003D0001305A000130101016FF05FE8130101FA9A
:1003E0002328210513094101232A910423263105DD
:1003F0001306C00293890500930405009715008039
:100400009385059113050900232C8104232E1104E3
:10041000232441052322510513040100EF00C021CC
:10042000130640019715008093854591130504003C
:10043000EF00802063840900130409001309800180
:10044000930A1000170A0080130A4ABC832504008F
:10045000639405028320C10503248105832441059B
:10046000032901058329C104032A8104832A410445
:1004700013010106678000006384550163E2B40242
:100480006386090213850400EF00C03F9305A000B6
:10049000EF00C03F3305AA0003450500EFF01FDC65
:1004A000130989FF130444006FF05FFA93074900B2
:1004B000B3D7F40093F7F700B307FA0003C50700BA
:1004C000EFF0DFD9B3D7240193F7F700B307FA00B1
:1004D00003C507006FF09FFC930500006FF01FF04D
:1004E000930510006FF09FEF130101FB2322F1042D
:1004F0009307410323248102232291022320210315
:10050000232E3101232C410123261102130405005F
:10051000232AB102232CC102232ED1022320E1047D
:1005200023240105232611052326F10093045002FC
:100530001309300793098007130A40060345040096
:10054000631205028320C102032481028324410235
:10055000032901028329C101032A81011301010535
:100560006780000063169506034514006312250397
:100570008327C10003A50700138747002326E10056
:10058000EFF01FE013041400130414006FF01FFBBE
:10059000631E35018327C10003A5070013874700A9
:1005A0002326E100EFF05FF36FF0DFFD631E4501EE
:1005B0008327C10003A50700138747002326E10016
:1005C000EFF01FF26FF01FFCEFF05FC96FF09FFBC1
:1005D000EFF0DFC86FF05FFB1306F6FF9307000034
:1005E0003307F500834607003387F500034707000C
:1005F000638AC700638806006306070093871700B5
:10060000E380E6FE3385E640678000001306F0FFD6
:100610006FF09FFC930705006388070003C707007E
:1006200093861700631607003385A7406780000094
:10063000938706006FF05FFE930700006394C70086
:10064000678000003387F500834607003307F50015
:10065000938717002300D7006FF05FFE3306C500B5
:10066000930705006394C700678000009387170015
:10067000A38FB7FE6FF01FFF130101FE232C810033
:1006800013040500138505002328210123263101C9
:10069000232E1100232A910013890500EFF09FF704
:1006A0009309050063180400170400800324046BF9
:1006B000630A04029304040083C7040063800702F2
:1006C000138609009305090013850400EFF0DFF09D
:1006D0009387140063180502238004001707008025
:1006E000232EF7668320C101130504000324810132
:1006F00083244101032901018329C100130101025F
:1007000067800000938407006FF01FFB93060500CD
:1007100013060000130500009305D002639A06003B
:10072000631C060267800000130610006F00400281
:1007300083C70600E38607FEE388B7FE938707FDBD
:10074000131735003387E700931715003305F700BB
:10075000938616006FF09FFC3305A0406780000071
:10076000930605001306900313050000639E060020
:100770006780000013174500636EF600938707FD3E
:100780003385E7009386160083C70600E39407FECF
:100790006780000093F7F705938797FC6FF05FFE83
:1007A000930705006368B5001387050093070700EA
:1007B000930505001305000063940700678000009F
:1007C00013F71700630407003305B5009395150070
:1007D00093D717006FF05FFE130101FF23229100F2
:1007E0002326110023248100930400006356050092
:1007F0003305A040930410001304000063D60500E5
:10080000B305B04013041000EFF09FF96384840037
:100810003305A0408320C1000324810083244100CC
:100820001301010167800000130805009307100001
:1008300013850500639A0500678000006348050082
:100840009397170013151500E36A05FF930605003B
:1008500013070000130508006304050063980700F0
:10086000E30C06FC13050700678000006366D500F3
:100870003305D5403307F70093D7170093D61600FA
:100880006FF09FFD130610006FF01FFA13060000B3
:100890006FF09FF9638E0506130101FF2324810089
:1008A0002322910023261100232021011304060096
:1008B00093040000635605003305A0409304100024
:1008C0001309000063D60500B305B04013091000FA
:1008D00013060400EFF05FF59305050063040402BE
:1008E00063842401B305A0408320C1000324810058
:1008F0008324410003290100138505001301010130
:1009000067800000E38204FEB305A0406FF0DFFDC6
:100910001385050067800000130610006FF09FF735
:10092000130600006FF01FF7130101FE17F5FF7F9C
:100930001305056F232E1100232C8100232A91001B
:100940002328210123263101EFF01FBAB717000039
:1009500003A58700B717000003A48702B71700009C
:1009600083A9C702B7450F00B717000003A9070303
:1009700093850524B717000083A44703EFF09FF089
:100980009305050017F5FF7F1305856BEFF0DFB5C5
:100990009385090017F5FF7F1305856BEFF0DFB432
:1009A0009305090017F5FF7F1305856BEFF0DFB3A3
:1009B0009385040017F5FF7F1305856BEFF0DFB219
:1009C000B7C501009385052017F5FF7F1305456B1B
:1009D000EFF09FB19305040017F5FF7F1305056B3A
:1009E000EFF09FB0032481018320C10183244101E2
:1009F000032901018329C10017F5FF7F1305056A4B
:080A0000130101026FF05FAE6B
:100A0800130101F52326110A2322910A2320210B21
:100A1800232E3109232C4109232A5109232861094E
:100A280023267109232481092324810AEFF00FFD6D
:100A3800371700308327070037C9ADDE930401005C
:100A480093E717002320F700B717003003A74700E4
:100A5800130AD000970A0080938A0A2F1367170099
:100A680023A2E700EFF0DFEB170500800325052E32
:100A7800EFF01FA717F5FF7F13054562EFF05FA69C
:100A880017F5FF7F13058566EFF09FA51309F9EEAB
:100A980017FBFF7F130BCB6597FBFF7F938B8B6552
:100AA80017FCFF7F130C0C6697F9FF7F9389096683
:100AB800EFF0CFF71374F50F13850400EFF01FB5AF
:100AC8009307050833852700230085F8631244053A
:100AD80013050B00EFF0DFA09385040013850B00CE
:100AE800EFF01FA01306000893050000138504000B
:100AF800EFF05FB613050C00EFF09F9E83A70A0086
:100B0800E38827FB13850900EFF09F9D6FF05FFADC
:0C0B180013050400EFF00FF46FF05FFE17
:00000001FF
